{
  "_format": "hh-sol-artifact-1",
  "contractName": "TurnoPaymentRegistry",
  "sourceName": "contracts/TurnoPaymentRegistry.sol",
  "abi": [
    {
      "inputs": [
        {
          "internalType": "address",
          "name": "_operator",
          "type": "address"
        }
      ],
      "stateMutability": "nonpayable",
      "type": "constructor"
    },
    {
      "anonymous": false,
      "inputs": [
        {
          "indexed": true,
          "internalType": "address",
          "name": "oldOperator",
          "type": "address"
        },
        {
          "indexed": true,
          "internalType": "address",
          "name": "newOperator",
          "type": "address"
        }
      ],
      "name": "OperatorUpdated",
      "type": "event"
    },
    {
      "anonymous": false,
      "inputs": [
        {
          "indexed": true,
          "internalType": "bytes32",
          "name": "recordId",
          "type": "bytes32"
        },
        {
          "indexed": true,
          "internalType": "string",
          "name": "paymentId",
          "type": "string"
        },
        {
          "indexed": false,
          "internalType": "string",
          "name": "workerId",
          "type": "string"
        },
        {
          "indexed": false,
          "internalType": "string",
          "name": "companyId",
          "type": "string"
        },
        {
          "indexed": false,
          "internalType": "uint256",
          "name": "amountCents",
          "type": "uint256"
        },
        {
          "indexed": false,
          "internalType": "string",
          "name": "settlementType",
          "type": "string"
        },
        {
          "indexed": false,
          "internalType": "uint256",
          "name": "timestamp",
          "type": "uint256"
        }
      ],
      "name": "PaymentRegistered",
      "type": "event"
    },
    {
      "inputs": [
        {
          "internalType": "string",
          "name": "paymentId",
          "type": "string"
        }
      ],
      "name": "getPaymentById",
      "outputs": [
        {
          "components": [
            {
              "internalType": "string",
              "name": "paymentId",
              "type": "string"
            },
            {
              "internalType": "string",
              "name": "workerId",
              "type": "string"
            },
            {
              "internalType": "string",
              "name": "companyId",
              "type": "string"
            },
            {
              "internalType": "string",
              "name": "shiftId",
              "type": "string"
            },
            {
              "internalType": "uint256",
              "name": "amountCents",
              "type": "uint256"
            },
            {
              "internalType": "string",
              "name": "pixE2eId",
              "type": "string"
            },
            {
              "internalType": "string",
              "name": "settlementType",
              "type": "string"
            },
            {
              "internalType": "uint256",
              "name": "timestamp",
              "type": "uint256"
            },
            {
              "internalType": "address",
              "name": "registeredBy",
              "type": "address"
            },
            {
              "internalType": "bool",
              "name": "exists",
              "type": "bool"
            }
          ],
          "internalType": "struct TurnoPaymentRegistry.PaymentRecord",
          "name": "",
          "type": "tuple"
        }
      ],
      "stateMutability": "view",
      "type": "function"
    },
    {
      "inputs": [
        {
          "internalType": "bytes32",
          "name": "recordId",
          "type": "bytes32"
        }
      ],
      "name": "getPaymentByRecordId",
      "outputs": [
        {
          "components": [
            {
              "internalType": "string",
              "name": "paymentId",
              "type": "string"
            },
            {
              "internalType": "string",
              "name": "workerId",
              "type": "string"
            },
            {
              "internalType": "string",
              "name": "companyId",
              "type": "string"
            },
            {
              "internalType": "string",
              "name": "shiftId",
              "type": "string"
            },
            {
              "internalType": "uint256",
              "name": "amountCents",
              "type": "uint256"
            },
            {
              "internalType": "string",
              "name": "pixE2eId",
              "type": "string"
            },
            {
              "internalType": "string",
              "name": "settlementType",
              "type": "string"
            },
            {
              "internalType": "uint256",
              "name": "timestamp",
              "type": "uint256"
            },
            {
              "internalType": "address",
              "name": "registeredBy",
              "type": "address"
            },
            {
              "internalType": "bool",
              "name": "exists",
              "type": "bool"
            }
          ],
          "internalType": "struct TurnoPaymentRegistry.PaymentRecord",
          "name": "",
          "type": "tuple"
        }
      ],
      "stateMutability": "view",
      "type": "function"
    },
    {
      "inputs": [
        {
          "internalType": "uint256",
          "name": "count",
          "type": "uint256"
        }
      ],
      "name": "getRecentRecords",
      "outputs": [
        {
          "internalType": "bytes32[]",
          "name": "",
          "type": "bytes32[]"
        }
      ],
      "stateMutability": "view",
      "type": "function"
    },
    {
      "inputs": [
        {
          "internalType": "string",
          "name": "paymentId",
          "type": "string"
        }
      ],
      "name": "getRecordId",
      "outputs": [
        {
          "internalType": "bytes32",
          "name": "",
          "type": "bytes32"
        }
      ],
      "stateMutability": "view",
      "type": "function"
    },
    {
      "inputs": [],
      "name": "getStats",
      "outputs": [
        {
          "internalType": "uint256",
          "name": "_totalPayments",
          "type": "uint256"
        },
        {
          "internalType": "uint256",
          "name": "_totalAmountCents",
          "type": "uint256"
        }
      ],
      "stateMutability": "view",
      "type": "function"
    },
    {
      "inputs": [],
      "name": "operator",
      "outputs": [
        {
          "internalType": "address",
          "name": "",
          "type": "address"
        }
      ],
      "stateMutability": "view",
      "type": "function"
    },
    {
      "inputs": [],
      "name": "owner",
      "outputs": [
        {
          "internalType": "address",
          "name": "",
          "type": "address"
        }
      ],
      "stateMutability": "view",
      "type": "function"
    },
    {
      "inputs": [
        {
          "internalType": "string",
          "name": "paymentId",
          "type": "string"
        }
      ],
      "name": "paymentExists",
      "outputs": [
        {
          "internalType": "bool",
          "name": "",
          "type": "bool"
        }
      ],
      "stateMutability": "view",
      "type": "function"
    },
    {
      "inputs": [
        {
          "internalType": "string",
          "name": "paymentId",
          "type": "string"
        },
        {
          "internalType": "string",
          "name": "workerId",
          "type": "string"
        },
        {
          "internalType": "string",
          "name": "companyId",
          "type": "string"
        },
        {
          "internalType": "string",
          "name": "shiftId",
          "type": "string"
        },
        {
          "internalType": "uint256",
          "name": "amountCents",
          "type": "uint256"
        },
        {
          "internalType": "string",
          "name": "pixE2eId",
          "type": "string"
        },
        {
          "internalType": "string",
          "name": "settlementType",
          "type": "string"
        }
      ],
      "name": "registerPayment",
      "outputs": [
        {
          "internalType": "bytes32",
          "name": "recordId",
          "type": "bytes32"
        }
      ],
      "stateMutability": "nonpayable",
      "type": "function"
    },
    {
      "inputs": [
        {
          "internalType": "address",
          "name": "_operator",
          "type": "address"
        }
      ],
      "name": "setOperator",
      "outputs": [],
      "stateMutability": "nonpayable",
      "type": "function"
    },
    {
      "inputs": [],
      "name": "totalAmountCents",
      "outputs": [
        {
          "internalType": "uint256",
          "name": "",
          "type": "uint256"
        }
      ],
      "stateMutability": "view",
      "type": "function"
    },
    {
      "inputs": [],
      "name": "totalPayments",
      "outputs": [
        {
          "internalType": "uint256",
          "name": "",
          "type": "uint256"
        }
      ],
      "stateMutability": "view",
      "type": "function"
    },
    {
      "inputs": [
        {
          "internalType": "address",
          "name": "newOwner",
          "type": "address"
        }
      ],
      "name": "transferOwnership",
      "outputs": [],
      "stateMutability": "nonpayable",
      "type": "function"
    }
  ],
  "bytecode": "0x60803461007a57601f61162938819003918201601f19168301916001600160401b0383118484101761007f5780849260209460405283398101031261007a57516001600160a01b0381169081900361007a5760018060a01b031933816000541617600055600154161760015560405161159390816100968239f35b600080fd5b634e487b7160e01b600052604160045260246000fdfe608080604052600436101561001357600080fd5b60003560e01c9081625b44871461117e575080630f1f44b31461112d57806318c7d16b146110da5780632a3a6bf7146110bc578063570ca735146110935780638da5cb5b1461106a578063a70a674a146104e2578063aa0dce6814610425578063b3ab15fb146103b3578063c59d48471461038e578063d93fdba61461024c578063f2fde38b146101c65763f50817e8146100ad57600080fd5b346101c1576020806003193601126101c157600654600435818111156101bc5750805b6100d9816114fa565b906100e760405192836112f4565b8082526100f3816114fa565b8285019390601f190136853760005b82811061014d5750505090604051928392818401908285525180915260408401929160005b82811061013657505050500390f35b835185528695509381019392810192600101610127565b8282038281116101a65761016482610169926113db565b611395565b91905485518210156101905761018b9260031b1c878260051b870101526113cc565b610102565b634e487b7160e01b600052603260045260246000fd5b634e487b7160e01b600052601160045260246000fd5b6100d0565b600080fd5b346101c15760203660031901126101c1576004356001600160a01b03818116918290036101c1576101fd6000549182163314611511565b8115610213576001600160a01b03191617600055005b60405162461bcd60e51b8152602060048201526011602482015270456e64657265636f20696e76616c69646f60781b6044820152606490fd5b346101c15760203660031901126101c157600435610268611409565b5080600052600460205260ff60086040600020015460a01c1615610349576000526004602052610345604060002060ff6008604051926102a7846112d8565b6102b081611454565b84526102be60018201611454565b60208501526102cf60028201611454565b60408501526102e060038201611454565b6060850152600481015460808501526102fb60058201611454565b60a085015261030c60068201611454565b60c0850152600781015460e085015201546001600160a01b03811661010084015260a01c16151561012082015260405191829182611206565b0390f35b60405162461bcd60e51b815260206004820152601760248201527f526567697374726f206e616f20656e636f6e747261646f0000000000000000006044820152606490fd5b346101c15760003660031901126101c157604060025460035482519182526020820152f35b346101c15760203660031901126101c1576004356001600160a01b03818116918290036101c1576103e981600054163314611511565b816001549182167ffbe5b6cbafb274f445d7fed869dc77a838d8243a22c460de156560e8857cad03600080a36001600160a01b03191617600155005b346101c15760203660031901126101c1576004356001600160401b0381116101c1576104576020913690600401611199565b9190610461611409565b508260405193849283378101600581520301902054801561049d576000526004602052610345604060002060ff6008604051926102a7846112d8565b60405162461bcd60e51b815260206004820152601860248201527f506167616d656e746f206e616f20656e636f6e747261646f00000000000000006044820152606490fd5b346101c15760e03660031901126101c1576004356001600160401b0381116101c157610512903690600401611199565b906024356001600160401b0381116101c157610532903690600401611199565b92906044356001600160401b0381116101c157610553903690600401611199565b9290916064356001600160401b0381116101c157610575903690600401611199565b96909560a4356001600160401b0381116101c157610597903690600401611199565b909860c4356001600160401b0381116101c1576105b8903690600401611199565b9a909260018060a01b036001541633148015611056575b15611011578715610fd45760843515610f8f57604051888682376005898201526020818a81010301902054610f4a57848689858e818f8f818f889060405199898b9a60208c019d8e378a0191602083016000815237019160208301600081523701916020830160008152370160843560208201524260408201520360408101825260600161065d90826112f4565b5190209a6040519361066e856112d8565b610679368b89611315565b855261068636898b611315565b6020860152610696368d8d611315565b604086015236906106a692611315565b6060840152608435608084015236906106be92611315565b60a08201526106ce368b84611315565b60c08201524260e082015233610100820152610120810160019052886000526004602052604060002081518051906001600160401b038211610a68578190610716845461135b565b601f8111610efa575b50602090601f8311600114610e8e57600092610e83575b50508160011b916000199060031b1c19161781555b60208201518051906001600160401b038211610a68578190610770600185015461135b565b601f8111610e30575b50602090601f8311600114610dbe57600092610db3575b50508160011b916000199060031b1c19161760018201555b60408201518051906001600160401b038211610a685781906107cd600285015461135b565b601f8111610d60575b50602090601f8311600114610cee57600092610ce3575b50508160011b916000199060031b1c19161760028201555b60608201518051906001600160401b038211610a6857819061082a600385015461135b565b601f8111610c90575b50602090601f8311600114610c1e57600092610c13575b50508160011b916000199060031b1c19161760038201555b6080820151600482015560a08201518051906001600160401b038211610a68578190610891600585015461135b565b601f8111610bc0575b50602090601f8311600114610b4e57600092610b43575b50508160011b916000199060031b1c19161760058201555b60c08201518051906001600160401b038211610a68576108ec600684015461135b565b601f8111610afc575b50602090601f8311600114610a8957600893929160009183610a7e575b50508160011b916000199060031b1c19161760068201555b60e08301516007820155019060018060a01b036101008201511682549161012060ff60a01b910151151560a01b16916affffffffffffffffffffff60a81b1617179055876040518684823760208188810160058152030190205560065498680100000000000000008a1015610a6857610a4189977f27c46233cb46d58cfefe3f18bb03c98a7991272a407a7cd7cdc000de0668f75197610a57956109d68e60209f600101600655611395565b81549060031b908d821b91600019901b19161790556109f66002546113cc565b600255610a076084356003546113db565b60035581604051928392833781016000815203902099610a3460405198899860a08a5260a08a01916113e8565b918783038e8901526113e8565b91608435604086015284830360608601526113e8565b4260808301520390a3604051908152f35b634e487b7160e01b600052604160045260246000fd5b015190508e80610912565b906006840160005260206000209160005b601f1985168110610ae4575091839160019360089695601f19811610610acb575b505050811b01600682015561092a565b015160001960f88460031b161c191690558e8080610abb565b91926020600181928685015181550194019201610a9a565b600684016000526020600020601f840160051c810160208510610b3c575b601f830160051c82018110610b305750506108f5565b60008155600101610b1a565b5080610b1a565b015190508d806108b1565b9250600584016000526020600020906000935b601f1984168510610ba5576001945083601f19811610610b8c575b505050811b0160058201556108c9565b015160001960f88460031b161c191690558d8080610b7c565b81810151835560209485019460019093019290910190610b61565b909150600584016000526020600020601f840160051c810160208510610c0c575b90849392915b601f830160051c82018110610bfd57505061089a565b60008155859450600101610be7565b5080610be1565b015190508d8061084a565b9250600384016000526020600020906000935b601f1984168510610c75576001945083601f19811610610c5c575b505050811b016003820155610862565b015160001960f88460031b161c191690558d8080610c4c565b81810151835560209485019460019093019290910190610c31565b909150600384016000526020600020601f840160051c810160208510610cdc575b90849392915b601f830160051c82018110610ccd575050610833565b60008155859450600101610cb7565b5080610cb1565b015190508d806107ed565b9250600284016000526020600020906000935b601f1984168510610d45576001945083601f19811610610d2c575b505050811b016002820155610805565b015160001960f88460031b161c191690558d8080610d1c565b81810151835560209485019460019093019290910190610d01565b909150600284016000526020600020601f840160051c810160208510610dac575b90849392915b601f830160051c82018110610d9d5750506107d6565b60008155859450600101610d87565b5080610d81565b015190508d80610790565b9250600184016000526020600020906000935b601f1984168510610e15576001945083601f19811610610dfc575b505050811b0160018201556107a8565b015160001960f88460031b161c191690558d8080610dec565b81810151835560209485019460019093019290910190610dd1565b909150600184016000526020600020601f840160051c810160208510610e7c575b90849392915b601f830160051c82018110610e6d575050610779565b60008155859450600101610e57565b5080610e51565b015190508d80610736565b9250836000526020600020906000935b601f1984168510610edf576001945083601f19811610610ec6575b505050811b01815561074b565b015160001960f88460031b161c191690558d8080610eb9565b81810151835560209485019460019093019290910190610e9e565b909150836000526020600020601f840160051c810160208510610f43575b90849392915b601f830160051c82018110610f3457505061071f565b60008155859450600101610f1e565b5080610f18565b60405162461bcd60e51b815260206004820152601760248201527f506167616d656e746f206a61207265676973747261646f0000000000000000006044820152606490fd5b60405162461bcd60e51b815260206004820152601760248201527f76616c6f7220646576652073657220706f73697469766f0000000000000000006044820152606490fd5b60405162461bcd60e51b81526020600482015260156024820152747061796d656e744964206f6272696761746f72696f60581b6044820152606490fd5b60405162461bcd60e51b815260206004820152601a60248201527f4170656e6173206f70657261646f72206175746f72697a61646f0000000000006044820152606490fd5b506000546001600160a01b031633146105cf565b346101c15760003660031901126101c1576000546040516001600160a01b039091168152602090f35b346101c15760003660031901126101c1576001546040516001600160a01b039091168152602090f35b346101c15760003660031901126101c1576020600354604051908152f35b346101c15760203660031901126101c1576004356001600160401b0381116101c157602061110d81923690600401611199565b919082604051938492833781016005815203019020541515604051908152f35b346101c15760203660031901126101c1576004356001600160401b0381116101c157602061116081923690600401611199565b91908260405193849283378101600581520301902054604051908152f35b346101c15760003660031901126101c1576020906002548152f35b9181601f840112156101c1578235916001600160401b0383116101c157602083818601950101116101c157565b919082519283825260005b8481106111f2575050826000602080949584010152601f8019910116010190565b6020818301810151848301820152016111d1565b6020815281516112a7611227610140928360208601526101608501906111c6565b61129261127461126061124c602089015194601f1995868a83030160408b01526111c6565b6040890151858983030160608a01526111c6565b6060880151848883030160808901526111c6565b608087015160a087015260a0870151838783030160c08801526111c6565b9060c0860151908583030160e08601526111c6565b60e0840151610100848101919091528401516001600160a01b03166101208085019190915290930151151591015290565b61014081019081106001600160401b03821117610a6857604052565b90601f801991011681019081106001600160401b03821117610a6857604052565b9291926001600160401b038211610a68576040519161133e601f8201601f1916602001846112f4565b8294818452818301116101c1578281602093846000960137010152565b90600182811c9216801561138b575b602083101461137557565b634e487b7160e01b600052602260045260246000fd5b91607f169161136a565b6006548110156101905760066000527ff652222313e28459528d920b65115c16c04f3efc82aaedc97be59f3f377c0d3f0190600090565b60001981146101a65760010190565b919082018092116101a657565b908060209392818452848401376000828201840152601f01601f1916010190565b60405190611416826112d8565b600061012083606080825280602083015280604083015280808301528360808301528060a083015260c08201528260e0820152826101008201520152565b90604051918260008254926114688461135b565b9081845260019485811690816000146114d75750600114611494575b5050611492925003836112f4565b565b9093915060005260209081600020936000915b8183106114bf57505061149293508201013880611484565b855488840185015294850194879450918301916114a7565b91505061149294506020925060ff191682840152151560051b8201013880611484565b6001600160401b038111610a685760051b60200190565b1561151857565b60405162461bcd60e51b815260206004820152601c60248201527f4170656e6173206f206f776e657220706f6465206578656375746172000000006044820152606490fdfea2646970667358221220eead3633a22502a6d9f012f2de53bf16670df015d699079a8ed0e0a5ef72fbe464736f6c63430008140033",
  "linkReferences": {},
  "deployedLinkReferences": {}
}