{"contracts/TurnoPaymentRegistry.sol":{"TurnoPaymentRegistry":{"abi":[{"inputs":[{"internalType":"address","name":"_operator","type":"address"}],"stateMutability":"nonpayable","type":"constructor"},{"anonymous":false,"inputs":[{"indexed":true,"internalType":"address","name":"oldOperator","type":"address"},{"indexed":true,"internalType":"address","name":"newOperator","type":"address"}],"name":"OperatorUpdated","type":"event"},{"anonymous":false,"inputs":[{"indexed":true,"internalType":"bytes32","name":"recordId","type":"bytes32"},{"indexed":true,"internalType":"string","name":"paymentId","type":"string"},{"indexed":false,"internalType":"string","name":"workerId","type":"string"},{"indexed":false,"internalType":"string","name":"companyId","type":"string"},{"indexed":false,"internalType":"uint256","name":"amountCents","type":"uint256"},{"indexed":false,"internalType":"string","name":"settlementType","type":"string"},{"indexed":false,"internalType":"uint256","name":"timestamp","type":"uint256"}],"name":"PaymentRegistered","type":"event"},{"inputs":[{"internalType":"string","name":"paymentId","type":"string"}],"name":"getPaymentById","outputs":[{"components":[{"internalType":"string","name":"paymentId","type":"string"},{"internalType":"string","name":"workerId","type":"string"},{"internalType":"string","name":"companyId","type":"string"},{"internalType":"string","name":"shiftId","type":"string"},{"internalType":"uint256","name":"amountCents","type":"uint256"},{"internalType":"string","name":"pixE2eId","type":"string"},{"internalType":"string","name":"settlementType","type":"string"},{"internalType":"uint256","name":"timestamp","type":"uint256"},{"internalType":"address","name":"registeredBy","type":"address"},{"internalType":"bool","name":"exists","type":"bool"}],"internalType":"struct TurnoPaymentRegistry.PaymentRecord","name":"","type":"tuple"}],"stateMutability":"view","type":"function"},{"inputs":[{"internalType":"bytes32","name":"recordId","type":"bytes32"}],"name":"getPaymentByRecordId","outputs":[{"components":[{"internalType":"string","name":"paymentId","type":"string"},{"internalType":"string","name":"workerId","type":"string"},{"internalType":"string","name":"companyId","type":"string"},{"internalType":"string","name":"shiftId","type":"string"},{"internalType":"uint256","name":"amountCents","type":"uint256"},{"internalType":"string","name":"pixE2eId","type":"string"},{"internalType":"string","name":"settlementType","type":"string"},{"internalType":"uint256","name":"timestamp","type":"uint256"},{"internalType":"address","name":"registeredBy","type":"address"},{"internalType":"bool","name":"exists","type":"bool"}],"internalType":"struct TurnoPaymentRegistry.PaymentRecord","name":"","type":"tuple"}],"stateMutability":"view","type":"function"},{"inputs":[{"internalType":"uint256","name":"count","type":"uint256"}],"name":"getRecentRecords","outputs":[{"internalType":"bytes32[]","name":"","type":"bytes32[]"}],"stateMutability":"view","type":"function"},{"inputs":[{"internalType":"string","name":"paymentId","type":"string"}],"name":"getRecordId","outputs":[{"internalType":"bytes32","name":"","type":"bytes32"}],"stateMutability":"view","type":"function"},{"inputs":[],"name":"getStats","outputs":[{"internalType":"uint256","name":"_totalPayments","type":"uint256"},{"internalType":"uint256","name":"_totalAmountCents","type":"uint256"}],"stateMutability":"view","type":"function"},{"inputs":[],"name":"operator","outputs":[{"internalType":"address","name":"","type":"address"}],"stateMutability":"view","type":"function"},{"inputs":[],"name":"owner","outputs":[{"internalType":"address","name":"","type":"address"}],"stateMutability":"view","type":"function"},{"inputs":[{"internalType":"string","name":"paymentId","type":"string"}],"name":"paymentExists","outputs":[{"internalType":"bool","name":"","type":"bool"}],"stateMutability":"view","type":"function"},{"inputs":[{"internalType":"string","name":"paymentId","type":"string"},{"internalType":"string","name":"workerId","type":"string"},{"internalType":"string","name":"companyId","type":"string"},{"internalType":"string","name":"shiftId","type":"string"},{"internalType":"uint256","name":"amountCents","type":"uint256"},{"internalType":"string","name":"pixE2eId","type":"string"},{"internalType":"string","name":"settlementType","type":"string"}],"name":"registerPayment","outputs":[{"internalType":"bytes32","name":"recordId","type":"bytes32"}],"stateMutability":"nonpayable","type":"function"},{"inputs":[{"internalType":"address","name":"_operator","type":"address"}],"name":"setOperator","outputs":[],"stateMutability":"nonpayable","type":"function"},{"inputs":[],"name":"totalAmountCents","outputs":[{"internalType":"uint256","name":"","type":"uint256"}],"stateMutability":"view","type":"function"},{"inputs":[],"name":"totalPayments","outputs":[{"internalType":"uint256","name":"","type":"uint256"}],"stateMutability":"view","type":"function"},{"inputs":[{"internalType":"address","name":"newOwner","type":"address"}],"name":"transferOwnership","outputs":[],"stateMutability":"nonpayable","type":"function"}],"evm":{"bytecode":{"linkReferences":{},"object":"60803461007a57601f61162938819003918201601f19168301916001600160401b0383118484101761007f5780849260209460405283398101031261007a57516001600160a01b0381169081900361007a5760018060a01b031933816000541617600055600154161760015560405161159390816100968239f35b600080fd5b634e487b7160e01b600052604160045260246000fdfe608080604052600436101561001357600080fd5b60003560e01c9081625b44871461117e575080630f1f44b31461112d57806318c7d16b146110da5780632a3a6bf7146110bc578063570ca735146110935780638da5cb5b1461106a578063a70a674a146104e2578063aa0dce6814610425578063b3ab15fb146103b3578063c59d48471461038e578063d93fdba61461024c578063f2fde38b146101c65763f50817e8146100ad57600080fd5b346101c1576020806003193601126101c157600654600435818111156101bc5750805b6100d9816114fa565b906100e760405192836112f4565b8082526100f3816114fa565b8285019390601f190136853760005b82811061014d5750505090604051928392818401908285525180915260408401929160005b82811061013657505050500390f35b835185528695509381019392810192600101610127565b8282038281116101a65761016482610169926113db565b611395565b91905485518210156101905761018b9260031b1c878260051b870101526113cc565b610102565b634e487b7160e01b600052603260045260246000fd5b634e487b7160e01b600052601160045260246000fd5b6100d0565b600080fd5b346101c15760203660031901126101c1576004356001600160a01b03818116918290036101c1576101fd6000549182163314611511565b8115610213576001600160a01b03191617600055005b60405162461bcd60e51b8152602060048201526011602482015270456e64657265636f20696e76616c69646f60781b6044820152606490fd5b346101c15760203660031901126101c157600435610268611409565b5080600052600460205260ff60086040600020015460a01c1615610349576000526004602052610345604060002060ff6008604051926102a7846112d8565b6102b081611454565b84526102be60018201611454565b60208501526102cf60028201611454565b60408501526102e060038201611454565b6060850152600481015460808501526102fb60058201611454565b60a085015261030c60068201611454565b60c0850152600781015460e085015201546001600160a01b03811661010084015260a01c16151561012082015260405191829182611206565b0390f35b60405162461bcd60e51b815260206004820152601760248201527f526567697374726f206e616f20656e636f6e747261646f0000000000000000006044820152606490fd5b346101c15760003660031901126101c157604060025460035482519182526020820152f35b346101c15760203660031901126101c1576004356001600160a01b03818116918290036101c1576103e981600054163314611511565b816001549182167ffbe5b6cbafb274f445d7fed869dc77a838d8243a22c460de156560e8857cad03600080a36001600160a01b03191617600155005b346101c15760203660031901126101c1576004356001600160401b0381116101c1576104576020913690600401611199565b9190610461611409565b508260405193849283378101600581520301902054801561049d576000526004602052610345604060002060ff6008604051926102a7846112d8565b60405162461bcd60e51b815260206004820152601860248201527f506167616d656e746f206e616f20656e636f6e747261646f00000000000000006044820152606490fd5b346101c15760e03660031901126101c1576004356001600160401b0381116101c157610512903690600401611199565b906024356001600160401b0381116101c157610532903690600401611199565b92906044356001600160401b0381116101c157610553903690600401611199565b9290916064356001600160401b0381116101c157610575903690600401611199565b96909560a4356001600160401b0381116101c157610597903690600401611199565b909860c4356001600160401b0381116101c1576105b8903690600401611199565b9a909260018060a01b036001541633148015611056575b15611011578715610fd45760843515610f8f57604051888682376005898201526020818a81010301902054610f4a57848689858e818f8f818f889060405199898b9a60208c019d8e378a0191602083016000815237019160208301600081523701916020830160008152370160843560208201524260408201520360408101825260600161065d90826112f4565b5190209a6040519361066e856112d8565b610679368b89611315565b855261068636898b611315565b6020860152610696368d8d611315565b604086015236906106a692611315565b6060840152608435608084015236906106be92611315565b60a08201526106ce368b84611315565b60c08201524260e082015233610100820152610120810160019052886000526004602052604060002081518051906001600160401b038211610a68578190610716845461135b565b601f8111610efa575b50602090601f8311600114610e8e57600092610e83575b50508160011b916000199060031b1c19161781555b60208201518051906001600160401b038211610a68578190610770600185015461135b565b601f8111610e30575b50602090601f8311600114610dbe57600092610db3575b50508160011b916000199060031b1c19161760018201555b60408201518051906001600160401b038211610a685781906107cd600285015461135b565b601f8111610d60575b50602090601f8311600114610cee57600092610ce3575b50508160011b916000199060031b1c19161760028201555b60608201518051906001600160401b038211610a6857819061082a600385015461135b565b601f8111610c90575b50602090601f8311600114610c1e57600092610c13575b50508160011b916000199060031b1c19161760038201555b6080820151600482015560a08201518051906001600160401b038211610a68578190610891600585015461135b565b601f8111610bc0575b50602090601f8311600114610b4e57600092610b43575b50508160011b916000199060031b1c19161760058201555b60c08201518051906001600160401b038211610a68576108ec600684015461135b565b601f8111610afc575b50602090601f8311600114610a8957600893929160009183610a7e575b50508160011b916000199060031b1c19161760068201555b60e08301516007820155019060018060a01b036101008201511682549161012060ff60a01b910151151560a01b16916affffffffffffffffffffff60a81b1617179055876040518684823760208188810160058152030190205560065498680100000000000000008a1015610a6857610a4189977f27c46233cb46d58cfefe3f18bb03c98a7991272a407a7cd7cdc000de0668f75197610a57956109d68e60209f600101600655611395565b81549060031b908d821b91600019901b19161790556109f66002546113cc565b600255610a076084356003546113db565b60035581604051928392833781016000815203902099610a3460405198899860a08a5260a08a01916113e8565b918783038e8901526113e8565b91608435604086015284830360608601526113e8565b4260808301520390a3604051908152f35b634e487b7160e01b600052604160045260246000fd5b015190508e80610912565b906006840160005260206000209160005b601f1985168110610ae4575091839160019360089695601f19811610610acb575b505050811b01600682015561092a565b015160001960f88460031b161c191690558e8080610abb565b91926020600181928685015181550194019201610a9a565b600684016000526020600020601f840160051c810160208510610b3c575b601f830160051c82018110610b305750506108f5565b60008155600101610b1a565b5080610b1a565b015190508d806108b1565b9250600584016000526020600020906000935b601f1984168510610ba5576001945083601f19811610610b8c575b505050811b0160058201556108c9565b015160001960f88460031b161c191690558d8080610b7c565b81810151835560209485019460019093019290910190610b61565b909150600584016000526020600020601f840160051c810160208510610c0c575b90849392915b601f830160051c82018110610bfd57505061089a565b60008155859450600101610be7565b5080610be1565b015190508d8061084a565b9250600384016000526020600020906000935b601f1984168510610c75576001945083601f19811610610c5c575b505050811b016003820155610862565b015160001960f88460031b161c191690558d8080610c4c565b81810151835560209485019460019093019290910190610c31565b909150600384016000526020600020601f840160051c810160208510610cdc575b90849392915b601f830160051c82018110610ccd575050610833565b60008155859450600101610cb7565b5080610cb1565b015190508d806107ed565b9250600284016000526020600020906000935b601f1984168510610d45576001945083601f19811610610d2c575b505050811b016002820155610805565b015160001960f88460031b161c191690558d8080610d1c565b81810151835560209485019460019093019290910190610d01565b909150600284016000526020600020601f840160051c810160208510610dac575b90849392915b601f830160051c82018110610d9d5750506107d6565b60008155859450600101610d87565b5080610d81565b015190508d80610790565b9250600184016000526020600020906000935b601f1984168510610e15576001945083601f19811610610dfc575b505050811b0160018201556107a8565b015160001960f88460031b161c191690558d8080610dec565b81810151835560209485019460019093019290910190610dd1565b909150600184016000526020600020601f840160051c810160208510610e7c575b90849392915b601f830160051c82018110610e6d575050610779565b60008155859450600101610e57565b5080610e51565b015190508d80610736565b9250836000526020600020906000935b601f1984168510610edf576001945083601f19811610610ec6575b505050811b01815561074b565b015160001960f88460031b161c191690558d8080610eb9565b81810151835560209485019460019093019290910190610e9e565b909150836000526020600020601f840160051c810160208510610f43575b90849392915b601f830160051c82018110610f3457505061071f565b60008155859450600101610f1e565b5080610f18565b60405162461bcd60e51b815260206004820152601760248201527f506167616d656e746f206a61207265676973747261646f0000000000000000006044820152606490fd5b60405162461bcd60e51b815260206004820152601760248201527f76616c6f7220646576652073657220706f73697469766f0000000000000000006044820152606490fd5b60405162461bcd60e51b81526020600482015260156024820152747061796d656e744964206f6272696761746f72696f60581b6044820152606490fd5b60405162461bcd60e51b815260206004820152601a60248201527f4170656e6173206f70657261646f72206175746f72697a61646f0000000000006044820152606490fd5b506000546001600160a01b031633146105cf565b346101c15760003660031901126101c1576000546040516001600160a01b039091168152602090f35b346101c15760003660031901126101c1576001546040516001600160a01b039091168152602090f35b346101c15760003660031901126101c1576020600354604051908152f35b346101c15760203660031901126101c1576004356001600160401b0381116101c157602061110d81923690600401611199565b919082604051938492833781016005815203019020541515604051908152f35b346101c15760203660031901126101c1576004356001600160401b0381116101c157602061116081923690600401611199565b91908260405193849283378101600581520301902054604051908152f35b346101c15760003660031901126101c1576020906002548152f35b9181601f840112156101c1578235916001600160401b0383116101c157602083818601950101116101c157565b919082519283825260005b8481106111f2575050826000602080949584010152601f8019910116010190565b6020818301810151848301820152016111d1565b6020815281516112a7611227610140928360208601526101608501906111c6565b61129261127461126061124c602089015194601f1995868a83030160408b01526111c6565b6040890151858983030160608a01526111c6565b6060880151848883030160808901526111c6565b608087015160a087015260a0870151838783030160c08801526111c6565b9060c0860151908583030160e08601526111c6565b60e0840151610100848101919091528401516001600160a01b03166101208085019190915290930151151591015290565b61014081019081106001600160401b03821117610a6857604052565b90601f801991011681019081106001600160401b03821117610a6857604052565b9291926001600160401b038211610a68576040519161133e601f8201601f1916602001846112f4565b8294818452818301116101c1578281602093846000960137010152565b90600182811c9216801561138b575b602083101461137557565b634e487b7160e01b600052602260045260246000fd5b91607f169161136a565b6006548110156101905760066000527ff652222313e28459528d920b65115c16c04f3efc82aaedc97be59f3f377c0d3f0190600090565b60001981146101a65760010190565b919082018092116101a657565b908060209392818452848401376000828201840152601f01601f1916010190565b60405190611416826112d8565b600061012083606080825280602083015280604083015280808301528360808301528060a083015260c08201528260e0820152826101008201520152565b90604051918260008254926114688461135b565b9081845260019485811690816000146114d75750600114611494575b5050611492925003836112f4565b565b9093915060005260209081600020936000915b8183106114bf57505061149293508201013880611484565b855488840185015294850194879450918301916114a7565b91505061149294506020925060ff191682840152151560051b8201013880611484565b6001600160401b038111610a685760051b60200190565b1561151857565b60405162461bcd60e51b815260206004820152601c60248201527f4170656e6173206f206f776e657220706f6465206578656375746172000000006044820152606490fdfea2646970667358221220eead3633a22502a6d9f012f2de53bf16670df015d699079a8ed0e0a5ef72fbe464736f6c63430008140033","opcodes":"PUSH1 0x80 CALLVALUE PUSH2 0x7A JUMPI PUSH1 0x1F PUSH2 0x1629 CODESIZE DUP2 SWAP1 SUB SWAP2 DUP3 ADD PUSH1 0x1F NOT AND DUP4 ADD SWAP2 PUSH1 0x1 PUSH1 0x1 PUSH1 0x40 SHL SUB DUP4 GT DUP5 DUP5 LT OR PUSH2 0x7F JUMPI DUP1 DUP5 SWAP3 PUSH1 0x20 SWAP5 PUSH1 0x40 MSTORE DUP4 CODECOPY DUP2 ADD SUB SLT PUSH2 0x7A JUMPI MLOAD PUSH1 0x1 PUSH1 0x1 PUSH1 0xA0 SHL SUB DUP2 AND SWAP1 DUP2 SWAP1 SUB PUSH2 0x7A JUMPI PUSH1 0x1 DUP1 PUSH1 0xA0 SHL SUB NOT CALLER DUP2 PUSH1 0x0 SLOAD AND OR PUSH1 0x0 SSTORE PUSH1 0x1 SLOAD AND OR PUSH1 0x1 SSTORE PUSH1 0x40 MLOAD PUSH2 0x1593 SWAP1 DUP2 PUSH2 0x96 DUP3 CODECOPY RETURN JUMPDEST PUSH1 0x0 DUP1 REVERT JUMPDEST PUSH4 0x4E487B71 PUSH1 0xE0 SHL PUSH1 0x0 MSTORE PUSH1 0x41 PUSH1 0x4 MSTORE PUSH1 0x24 PUSH1 0x0 REVERT INVALID PUSH1 0x80 DUP1 PUSH1 0x40 MSTORE PUSH1 0x4 CALLDATASIZE LT ISZERO PUSH2 0x13 JUMPI PUSH1 0x0 DUP1 REVERT JUMPDEST PUSH1 0x0 CALLDATALOAD PUSH1 0xE0 SHR SWAP1 DUP2 PUSH3 0x5B4487 EQ PUSH2 0x117E JUMPI POP DUP1 PUSH4 0xF1F44B3 EQ PUSH2 0x112D JUMPI DUP1 PUSH4 0x18C7D16B EQ PUSH2 0x10DA JUMPI DUP1 PUSH4 0x2A3A6BF7 EQ PUSH2 0x10BC JUMPI DUP1 PUSH4 0x570CA735 EQ PUSH2 0x1093 JUMPI DUP1 PUSH4 0x8DA5CB5B EQ PUSH2 0x106A JUMPI DUP1 PUSH4 0xA70A674A EQ PUSH2 0x4E2 JUMPI DUP1 PUSH4 0xAA0DCE68 EQ PUSH2 0x425 JUMPI DUP1 PUSH4 0xB3AB15FB EQ PUSH2 0x3B3 JUMPI DUP1 PUSH4 0xC59D4847 EQ PUSH2 0x38E JUMPI DUP1 PUSH4 0xD93FDBA6 EQ PUSH2 0x24C JUMPI DUP1 PUSH4 0xF2FDE38B EQ PUSH2 0x1C6 JUMPI PUSH4 0xF50817E8 EQ PUSH2 0xAD JUMPI PUSH1 0x0 DUP1 REVERT JUMPDEST CALLVALUE PUSH2 0x1C1 JUMPI PUSH1 0x20 DUP1 PUSH1 0x3 NOT CALLDATASIZE ADD SLT PUSH2 0x1C1 JUMPI PUSH1 0x6 SLOAD PUSH1 0x4 CALLDATALOAD DUP2 DUP2 GT ISZERO PUSH2 0x1BC JUMPI POP DUP1 JUMPDEST PUSH2 0xD9 DUP2 PUSH2 0x14FA JUMP JUMPDEST SWAP1 PUSH2 0xE7 PUSH1 0x40 MLOAD SWAP3 DUP4 PUSH2 0x12F4 JUMP JUMPDEST DUP1 DUP3 MSTORE PUSH2 0xF3 DUP2 PUSH2 0x14FA JUMP JUMPDEST DUP3 DUP6 ADD SWAP4 SWAP1 PUSH1 0x1F NOT ADD CALLDATASIZE DUP6 CALLDATACOPY PUSH1 0x0 JUMPDEST DUP3 DUP2 LT PUSH2 0x14D JUMPI POP POP POP SWAP1 PUSH1 0x40 MLOAD SWAP3 DUP4 SWAP3 DUP2 DUP5 ADD SWAP1 DUP3 DUP6 MSTORE MLOAD DUP1 SWAP2 MSTORE PUSH1 0x40 DUP5 ADD SWAP3 SWAP2 PUSH1 0x0 JUMPDEST DUP3 DUP2 LT PUSH2 0x136 JUMPI POP POP POP POP SUB SWAP1 RETURN JUMPDEST DUP4 MLOAD DUP6 MSTORE DUP7 SWAP6 POP SWAP4 DUP2 ADD SWAP4 SWAP3 DUP2 ADD SWAP3 PUSH1 0x1 ADD PUSH2 0x127 JUMP JUMPDEST DUP3 DUP3 SUB DUP3 DUP2 GT PUSH2 0x1A6 JUMPI PUSH2 0x164 DUP3 PUSH2 0x169 SWAP3 PUSH2 0x13DB JUMP JUMPDEST PUSH2 0x1395 JUMP JUMPDEST SWAP2 SWAP1 SLOAD DUP6 MLOAD DUP3 LT ISZERO PUSH2 0x190 JUMPI PUSH2 0x18B SWAP3 PUSH1 0x3 SHL SHR DUP8 DUP3 PUSH1 0x5 SHL DUP8 ADD ADD MSTORE PUSH2 0x13CC JUMP JUMPDEST PUSH2 0x102 JUMP JUMPDEST PUSH4 0x4E487B71 PUSH1 0xE0 SHL PUSH1 0x0 MSTORE PUSH1 0x32 PUSH1 0x4 MSTORE PUSH1 0x24 PUSH1 0x0 REVERT JUMPDEST PUSH4 0x4E487B71 PUSH1 0xE0 SHL PUSH1 0x0 MSTORE PUSH1 0x11 PUSH1 0x4 MSTORE PUSH1 0x24 PUSH1 0x0 REVERT JUMPDEST PUSH2 0xD0 JUMP JUMPDEST PUSH1 0x0 DUP1 REVERT JUMPDEST CALLVALUE PUSH2 0x1C1 JUMPI PUSH1 0x20 CALLDATASIZE PUSH1 0x3 NOT ADD SLT PUSH2 0x1C1 JUMPI PUSH1 0x4 CALLDATALOAD PUSH1 0x1 PUSH1 0x1 PUSH1 0xA0 SHL SUB DUP2 DUP2 AND SWAP2 DUP3 SWAP1 SUB PUSH2 0x1C1 JUMPI PUSH2 0x1FD PUSH1 0x0 SLOAD SWAP2 DUP3 AND CALLER EQ PUSH2 0x1511 JUMP JUMPDEST DUP2 ISZERO PUSH2 0x213 JUMPI PUSH1 0x1 PUSH1 0x1 PUSH1 0xA0 SHL SUB NOT AND OR PUSH1 0x0 SSTORE STOP JUMPDEST PUSH1 0x40 MLOAD PUSH3 0x461BCD PUSH1 0xE5 SHL DUP2 MSTORE PUSH1 0x20 PUSH1 0x4 DUP3 ADD MSTORE PUSH1 0x11 PUSH1 0x24 DUP3 ADD MSTORE PUSH17 0x456E64657265636F20696E76616C69646F PUSH1 0x78 SHL PUSH1 0x44 DUP3 ADD MSTORE PUSH1 0x64 SWAP1 REVERT JUMPDEST CALLVALUE PUSH2 0x1C1 JUMPI PUSH1 0x20 CALLDATASIZE PUSH1 0x3 NOT ADD SLT PUSH2 0x1C1 JUMPI PUSH1 0x4 CALLDATALOAD PUSH2 0x268 PUSH2 0x1409 JUMP JUMPDEST POP DUP1 PUSH1 0x0 MSTORE PUSH1 0x4 PUSH1 0x20 MSTORE PUSH1 0xFF PUSH1 0x8 PUSH1 0x40 PUSH1 0x0 KECCAK256 ADD SLOAD PUSH1 0xA0 SHR AND ISZERO PUSH2 0x349 JUMPI PUSH1 0x0 MSTORE PUSH1 0x4 PUSH1 0x20 MSTORE PUSH2 0x345 PUSH1 0x40 PUSH1 0x0 KECCAK256 PUSH1 0xFF PUSH1 0x8 PUSH1 0x40 MLOAD SWAP3 PUSH2 0x2A7 DUP5 PUSH2 0x12D8 JUMP JUMPDEST PUSH2 0x2B0 DUP2 PUSH2 0x1454 JUMP JUMPDEST DUP5 MSTORE PUSH2 0x2BE PUSH1 0x1 DUP3 ADD PUSH2 0x1454 JUMP JUMPDEST PUSH1 0x20 DUP6 ADD MSTORE PUSH2 0x2CF PUSH1 0x2 DUP3 ADD PUSH2 0x1454 JUMP JUMPDEST PUSH1 0x40 DUP6 ADD MSTORE PUSH2 0x2E0 PUSH1 0x3 DUP3 ADD PUSH2 0x1454 JUMP JUMPDEST PUSH1 0x60 DUP6 ADD MSTORE PUSH1 0x4 DUP2 ADD SLOAD PUSH1 0x80 DUP6 ADD MSTORE PUSH2 0x2FB PUSH1 0x5 DUP3 ADD PUSH2 0x1454 JUMP JUMPDEST PUSH1 0xA0 DUP6 ADD MSTORE PUSH2 0x30C PUSH1 0x6 DUP3 ADD PUSH2 0x1454 JUMP JUMPDEST PUSH1 0xC0 DUP6 ADD MSTORE PUSH1 0x7 DUP2 ADD SLOAD PUSH1 0xE0 DUP6 ADD MSTORE ADD SLOAD PUSH1 0x1 PUSH1 0x1 PUSH1 0xA0 SHL SUB DUP2 AND PUSH2 0x100 DUP5 ADD MSTORE PUSH1 0xA0 SHR AND ISZERO ISZERO PUSH2 0x120 DUP3 ADD MSTORE PUSH1 0x40 MLOAD SWAP2 DUP3 SWAP2 DUP3 PUSH2 0x1206 JUMP JUMPDEST SUB SWAP1 RETURN JUMPDEST PUSH1 0x40 MLOAD PUSH3 0x461BCD PUSH1 0xE5 SHL DUP2 MSTORE PUSH1 0x20 PUSH1 0x4 DUP3 ADD MSTORE PUSH1 0x17 PUSH1 0x24 DUP3 ADD MSTORE PUSH32 0x526567697374726F206E616F20656E636F6E747261646F000000000000000000 PUSH1 0x44 DUP3 ADD MSTORE PUSH1 0x64 SWAP1 REVERT JUMPDEST CALLVALUE PUSH2 0x1C1 JUMPI PUSH1 0x0 CALLDATASIZE PUSH1 0x3 NOT ADD SLT PUSH2 0x1C1 JUMPI PUSH1 0x40 PUSH1 0x2 SLOAD PUSH1 0x3 SLOAD DUP3 MLOAD SWAP2 DUP3 MSTORE PUSH1 0x20 DUP3 ADD MSTORE RETURN JUMPDEST CALLVALUE PUSH2 0x1C1 JUMPI PUSH1 0x20 CALLDATASIZE PUSH1 0x3 NOT ADD SLT PUSH2 0x1C1 JUMPI PUSH1 0x4 CALLDATALOAD PUSH1 0x1 PUSH1 0x1 PUSH1 0xA0 SHL SUB DUP2 DUP2 AND SWAP2 DUP3 SWAP1 SUB PUSH2 0x1C1 JUMPI PUSH2 0x3E9 DUP2 PUSH1 0x0 SLOAD AND CALLER EQ PUSH2 0x1511 JUMP JUMPDEST DUP2 PUSH1 0x1 SLOAD SWAP2 DUP3 AND PUSH32 0xFBE5B6CBAFB274F445D7FED869DC77A838D8243A22C460DE156560E8857CAD03 PUSH1 0x0 DUP1 LOG3 PUSH1 0x1 PUSH1 0x1 PUSH1 0xA0 SHL SUB NOT AND OR PUSH1 0x1 SSTORE STOP JUMPDEST CALLVALUE PUSH2 0x1C1 JUMPI PUSH1 0x20 CALLDATASIZE PUSH1 0x3 NOT ADD SLT PUSH2 0x1C1 JUMPI PUSH1 0x4 CALLDATALOAD PUSH1 0x1 PUSH1 0x1 PUSH1 0x40 SHL SUB DUP2 GT PUSH2 0x1C1 JUMPI PUSH2 0x457 PUSH1 0x20 SWAP2 CALLDATASIZE SWAP1 PUSH1 0x4 ADD PUSH2 0x1199 JUMP JUMPDEST SWAP2 SWAP1 PUSH2 0x461 PUSH2 0x1409 JUMP JUMPDEST POP DUP3 PUSH1 0x40 MLOAD SWAP4 DUP5 SWAP3 DUP4 CALLDATACOPY DUP2 ADD PUSH1 0x5 DUP2 MSTORE SUB ADD SWAP1 KECCAK256 SLOAD DUP1 ISZERO PUSH2 0x49D JUMPI PUSH1 0x0 MSTORE PUSH1 0x4 PUSH1 0x20 MSTORE PUSH2 0x345 PUSH1 0x40 PUSH1 0x0 KECCAK256 PUSH1 0xFF PUSH1 0x8 PUSH1 0x40 MLOAD SWAP3 PUSH2 0x2A7 DUP5 PUSH2 0x12D8 JUMP JUMPDEST PUSH1 0x40 MLOAD PUSH3 0x461BCD PUSH1 0xE5 SHL DUP2 MSTORE PUSH1 0x20 PUSH1 0x4 DUP3 ADD MSTORE PUSH1 0x18 PUSH1 0x24 DUP3 ADD MSTORE PUSH32 0x506167616D656E746F206E616F20656E636F6E747261646F0000000000000000 PUSH1 0x44 DUP3 ADD MSTORE PUSH1 0x64 SWAP1 REVERT JUMPDEST CALLVALUE PUSH2 0x1C1 JUMPI PUSH1 0xE0 CALLDATASIZE PUSH1 0x3 NOT ADD SLT PUSH2 0x1C1 JUMPI PUSH1 0x4 CALLDATALOAD PUSH1 0x1 PUSH1 0x1 PUSH1 0x40 SHL SUB DUP2 GT PUSH2 0x1C1 JUMPI PUSH2 0x512 SWAP1 CALLDATASIZE SWAP1 PUSH1 0x4 ADD PUSH2 0x1199 JUMP JUMPDEST SWAP1 PUSH1 0x24 CALLDATALOAD PUSH1 0x1 PUSH1 0x1 PUSH1 0x40 SHL SUB DUP2 GT PUSH2 0x1C1 JUMPI PUSH2 0x532 SWAP1 CALLDATASIZE SWAP1 PUSH1 0x4 ADD PUSH2 0x1199 JUMP JUMPDEST SWAP3 SWAP1 PUSH1 0x44 CALLDATALOAD PUSH1 0x1 PUSH1 0x1 PUSH1 0x40 SHL SUB DUP2 GT PUSH2 0x1C1 JUMPI PUSH2 0x553 SWAP1 CALLDATASIZE SWAP1 PUSH1 0x4 ADD PUSH2 0x1199 JUMP JUMPDEST SWAP3 SWAP1 SWAP2 PUSH1 0x64 CALLDATALOAD PUSH1 0x1 PUSH1 0x1 PUSH1 0x40 SHL SUB DUP2 GT PUSH2 0x1C1 JUMPI PUSH2 0x575 SWAP1 CALLDATASIZE SWAP1 PUSH1 0x4 ADD PUSH2 0x1199 JUMP JUMPDEST SWAP7 SWAP1 SWAP6 PUSH1 0xA4 CALLDATALOAD PUSH1 0x1 PUSH1 0x1 PUSH1 0x40 SHL SUB DUP2 GT PUSH2 0x1C1 JUMPI PUSH2 0x597 SWAP1 CALLDATASIZE SWAP1 PUSH1 0x4 ADD PUSH2 0x1199 JUMP JUMPDEST SWAP1 SWAP9 PUSH1 0xC4 CALLDATALOAD PUSH1 0x1 PUSH1 0x1 PUSH1 0x40 SHL SUB DUP2 GT PUSH2 0x1C1 JUMPI PUSH2 0x5B8 SWAP1 CALLDATASIZE SWAP1 PUSH1 0x4 ADD PUSH2 0x1199 JUMP JUMPDEST SWAP11 SWAP1 SWAP3 PUSH1 0x1 DUP1 PUSH1 0xA0 SHL SUB PUSH1 0x1 SLOAD AND CALLER EQ DUP1 ISZERO PUSH2 0x1056 JUMPI JUMPDEST ISZERO PUSH2 0x1011 JUMPI DUP8 ISZERO PUSH2 0xFD4 JUMPI PUSH1 0x84 CALLDATALOAD ISZERO PUSH2 0xF8F JUMPI PUSH1 0x40 MLOAD DUP9 DUP7 DUP3 CALLDATACOPY PUSH1 0x5 DUP10 DUP3 ADD MSTORE PUSH1 0x20 DUP2 DUP11 DUP2 ADD SUB ADD SWAP1 KECCAK256 SLOAD PUSH2 0xF4A JUMPI DUP5 DUP7 DUP10 DUP6 DUP15 DUP2 DUP16 DUP16 DUP2 DUP16 DUP9 SWAP1 PUSH1 0x40 MLOAD SWAP10 DUP10 DUP12 SWAP11 PUSH1 0x20 DUP13 ADD SWAP14 DUP15 CALLDATACOPY DUP11 ADD SWAP2 PUSH1 0x20 DUP4 ADD PUSH1 0x0 DUP2 MSTORE CALLDATACOPY ADD SWAP2 PUSH1 0x20 DUP4 ADD PUSH1 0x0 DUP2 MSTORE CALLDATACOPY ADD SWAP2 PUSH1 0x20 DUP4 ADD PUSH1 0x0 DUP2 MSTORE CALLDATACOPY ADD PUSH1 0x84 CALLDATALOAD PUSH1 0x20 DUP3 ADD MSTORE TIMESTAMP PUSH1 0x40 DUP3 ADD MSTORE SUB PUSH1 0x40 DUP2 ADD DUP3 MSTORE PUSH1 0x60 ADD PUSH2 0x65D SWAP1 DUP3 PUSH2 0x12F4 JUMP JUMPDEST MLOAD SWAP1 KECCAK256 SWAP11 PUSH1 0x40 MLOAD SWAP4 PUSH2 0x66E DUP6 PUSH2 0x12D8 JUMP JUMPDEST PUSH2 0x679 CALLDATASIZE DUP12 DUP10 PUSH2 0x1315 JUMP JUMPDEST DUP6 MSTORE PUSH2 0x686 CALLDATASIZE DUP10 DUP12 PUSH2 0x1315 JUMP JUMPDEST PUSH1 0x20 DUP7 ADD MSTORE PUSH2 0x696 CALLDATASIZE DUP14 DUP14 PUSH2 0x1315 JUMP JUMPDEST PUSH1 0x40 DUP7 ADD MSTORE CALLDATASIZE SWAP1 PUSH2 0x6A6 SWAP3 PUSH2 0x1315 JUMP JUMPDEST PUSH1 0x60 DUP5 ADD MSTORE PUSH1 0x84 CALLDATALOAD PUSH1 0x80 DUP5 ADD MSTORE CALLDATASIZE SWAP1 PUSH2 0x6BE SWAP3 PUSH2 0x1315 JUMP JUMPDEST PUSH1 0xA0 DUP3 ADD MSTORE PUSH2 0x6CE CALLDATASIZE DUP12 DUP5 PUSH2 0x1315 JUMP JUMPDEST PUSH1 0xC0 DUP3 ADD MSTORE TIMESTAMP PUSH1 0xE0 DUP3 ADD MSTORE CALLER PUSH2 0x100 DUP3 ADD MSTORE PUSH2 0x120 DUP2 ADD PUSH1 0x1 SWAP1 MSTORE DUP9 PUSH1 0x0 MSTORE PUSH1 0x4 PUSH1 0x20 MSTORE PUSH1 0x40 PUSH1 0x0 KECCAK256 DUP2 MLOAD DUP1 MLOAD SWAP1 PUSH1 0x1 PUSH1 0x1 PUSH1 0x40 SHL SUB DUP3 GT PUSH2 0xA68 JUMPI DUP2 SWAP1 PUSH2 0x716 DUP5 SLOAD PUSH2 0x135B JUMP JUMPDEST PUSH1 0x1F DUP2 GT PUSH2 0xEFA JUMPI JUMPDEST POP PUSH1 0x20 SWAP1 PUSH1 0x1F DUP4 GT PUSH1 0x1 EQ PUSH2 0xE8E JUMPI PUSH1 0x0 SWAP3 PUSH2 0xE83 JUMPI JUMPDEST POP POP DUP2 PUSH1 0x1 SHL SWAP2 PUSH1 0x0 NOT SWAP1 PUSH1 0x3 SHL SHR NOT AND OR DUP2 SSTORE JUMPDEST PUSH1 0x20 DUP3 ADD MLOAD DUP1 MLOAD SWAP1 PUSH1 0x1 PUSH1 0x1 PUSH1 0x40 SHL SUB DUP3 GT PUSH2 0xA68 JUMPI DUP2 SWAP1 PUSH2 0x770 PUSH1 0x1 DUP6 ADD SLOAD PUSH2 0x135B JUMP JUMPDEST PUSH1 0x1F DUP2 GT PUSH2 0xE30 JUMPI JUMPDEST POP PUSH1 0x20 SWAP1 PUSH1 0x1F DUP4 GT PUSH1 0x1 EQ PUSH2 0xDBE JUMPI PUSH1 0x0 SWAP3 PUSH2 0xDB3 JUMPI JUMPDEST POP POP DUP2 PUSH1 0x1 SHL SWAP2 PUSH1 0x0 NOT SWAP1 PUSH1 0x3 SHL SHR NOT AND OR PUSH1 0x1 DUP3 ADD SSTORE JUMPDEST PUSH1 0x40 DUP3 ADD MLOAD DUP1 MLOAD SWAP1 PUSH1 0x1 PUSH1 0x1 PUSH1 0x40 SHL SUB DUP3 GT PUSH2 0xA68 JUMPI DUP2 SWAP1 PUSH2 0x7CD PUSH1 0x2 DUP6 ADD SLOAD PUSH2 0x135B JUMP JUMPDEST PUSH1 0x1F DUP2 GT PUSH2 0xD60 JUMPI JUMPDEST POP PUSH1 0x20 SWAP1 PUSH1 0x1F DUP4 GT PUSH1 0x1 EQ PUSH2 0xCEE JUMPI PUSH1 0x0 SWAP3 PUSH2 0xCE3 JUMPI JUMPDEST POP POP DUP2 PUSH1 0x1 SHL SWAP2 PUSH1 0x0 NOT SWAP1 PUSH1 0x3 SHL SHR NOT AND OR PUSH1 0x2 DUP3 ADD SSTORE JUMPDEST PUSH1 0x60 DUP3 ADD MLOAD DUP1 MLOAD SWAP1 PUSH1 0x1 PUSH1 0x1 PUSH1 0x40 SHL SUB DUP3 GT PUSH2 0xA68 JUMPI DUP2 SWAP1 PUSH2 0x82A PUSH1 0x3 DUP6 ADD SLOAD PUSH2 0x135B JUMP JUMPDEST PUSH1 0x1F DUP2 GT PUSH2 0xC90 JUMPI JUMPDEST POP PUSH1 0x20 SWAP1 PUSH1 0x1F DUP4 GT PUSH1 0x1 EQ PUSH2 0xC1E JUMPI PUSH1 0x0 SWAP3 PUSH2 0xC13 JUMPI JUMPDEST POP POP DUP2 PUSH1 0x1 SHL SWAP2 PUSH1 0x0 NOT SWAP1 PUSH1 0x3 SHL SHR NOT AND OR PUSH1 0x3 DUP3 ADD SSTORE JUMPDEST PUSH1 0x80 DUP3 ADD MLOAD PUSH1 0x4 DUP3 ADD SSTORE PUSH1 0xA0 DUP3 ADD MLOAD DUP1 MLOAD SWAP1 PUSH1 0x1 PUSH1 0x1 PUSH1 0x40 SHL SUB DUP3 GT PUSH2 0xA68 JUMPI DUP2 SWAP1 PUSH2 0x891 PUSH1 0x5 DUP6 ADD SLOAD PUSH2 0x135B JUMP JUMPDEST PUSH1 0x1F DUP2 GT PUSH2 0xBC0 JUMPI JUMPDEST POP PUSH1 0x20 SWAP1 PUSH1 0x1F DUP4 GT PUSH1 0x1 EQ PUSH2 0xB4E JUMPI PUSH1 0x0 SWAP3 PUSH2 0xB43 JUMPI JUMPDEST POP POP DUP2 PUSH1 0x1 SHL SWAP2 PUSH1 0x0 NOT SWAP1 PUSH1 0x3 SHL SHR NOT AND OR PUSH1 0x5 DUP3 ADD SSTORE JUMPDEST PUSH1 0xC0 DUP3 ADD MLOAD DUP1 MLOAD SWAP1 PUSH1 0x1 PUSH1 0x1 PUSH1 0x40 SHL SUB DUP3 GT PUSH2 0xA68 JUMPI PUSH2 0x8EC PUSH1 0x6 DUP5 ADD SLOAD PUSH2 0x135B JUMP JUMPDEST PUSH1 0x1F DUP2 GT PUSH2 0xAFC JUMPI JUMPDEST POP PUSH1 0x20 SWAP1 PUSH1 0x1F DUP4 GT PUSH1 0x1 EQ PUSH2 0xA89 JUMPI PUSH1 0x8 SWAP4 SWAP3 SWAP2 PUSH1 0x0 SWAP2 DUP4 PUSH2 0xA7E JUMPI JUMPDEST POP POP DUP2 PUSH1 0x1 SHL SWAP2 PUSH1 0x0 NOT SWAP1 PUSH1 0x3 SHL SHR NOT AND OR PUSH1 0x6 DUP3 ADD SSTORE JUMPDEST PUSH1 0xE0 DUP4 ADD MLOAD PUSH1 0x7 DUP3 ADD SSTORE ADD SWAP1 PUSH1 0x1 DUP1 PUSH1 0xA0 SHL SUB PUSH2 0x100 DUP3 ADD MLOAD AND DUP3 SLOAD SWAP2 PUSH2 0x120 PUSH1 0xFF PUSH1 0xA0 SHL SWAP2 ADD MLOAD ISZERO ISZERO PUSH1 0xA0 SHL AND SWAP2 PUSH11 0xFFFFFFFFFFFFFFFFFFFFFF PUSH1 0xA8 SHL AND OR OR SWAP1 SSTORE DUP8 PUSH1 0x40 MLOAD DUP7 DUP5 DUP3 CALLDATACOPY PUSH1 0x20 DUP2 DUP9 DUP2 ADD PUSH1 0x5 DUP2 MSTORE SUB ADD SWAP1 KECCAK256 SSTORE PUSH1 0x6 SLOAD SWAP9 PUSH9 0x10000000000000000 DUP11 LT ISZERO PUSH2 0xA68 JUMPI PUSH2 0xA41 DUP10 SWAP8 PUSH32 0x27C46233CB46D58CFEFE3F18BB03C98A7991272A407A7CD7CDC000DE0668F751 SWAP8 PUSH2 0xA57 SWAP6 PUSH2 0x9D6 DUP15 PUSH1 0x20 SWAP16 PUSH1 0x1 ADD PUSH1 0x6 SSTORE PUSH2 0x1395 JUMP JUMPDEST DUP2 SLOAD SWAP1 PUSH1 0x3 SHL SWAP1 DUP14 DUP3 SHL SWAP2 PUSH1 0x0 NOT SWAP1 SHL NOT AND OR SWAP1 SSTORE PUSH2 0x9F6 PUSH1 0x2 SLOAD PUSH2 0x13CC JUMP JUMPDEST PUSH1 0x2 SSTORE PUSH2 0xA07 PUSH1 0x84 CALLDATALOAD PUSH1 0x3 SLOAD PUSH2 0x13DB JUMP JUMPDEST PUSH1 0x3 SSTORE DUP2 PUSH1 0x40 MLOAD SWAP3 DUP4 SWAP3 DUP4 CALLDATACOPY DUP2 ADD PUSH1 0x0 DUP2 MSTORE SUB SWAP1 KECCAK256 SWAP10 PUSH2 0xA34 PUSH1 0x40 MLOAD SWAP9 DUP10 SWAP9 PUSH1 0xA0 DUP11 MSTORE PUSH1 0xA0 DUP11 ADD SWAP2 PUSH2 0x13E8 JUMP JUMPDEST SWAP2 DUP8 DUP4 SUB DUP15 DUP10 ADD MSTORE PUSH2 0x13E8 JUMP JUMPDEST SWAP2 PUSH1 0x84 CALLDATALOAD PUSH1 0x40 DUP7 ADD MSTORE DUP5 DUP4 SUB PUSH1 0x60 DUP7 ADD MSTORE PUSH2 0x13E8 JUMP JUMPDEST TIMESTAMP PUSH1 0x80 DUP4 ADD MSTORE SUB SWAP1 LOG3 PUSH1 0x40 MLOAD SWAP1 DUP2 MSTORE RETURN JUMPDEST PUSH4 0x4E487B71 PUSH1 0xE0 SHL PUSH1 0x0 MSTORE PUSH1 0x41 PUSH1 0x4 MSTORE PUSH1 0x24 PUSH1 0x0 REVERT JUMPDEST ADD MLOAD SWAP1 POP DUP15 DUP1 PUSH2 0x912 JUMP JUMPDEST SWAP1 PUSH1 0x6 DUP5 ADD PUSH1 0x0 MSTORE PUSH1 0x20 PUSH1 0x0 KECCAK256 SWAP2 PUSH1 0x0 JUMPDEST PUSH1 0x1F NOT DUP6 AND DUP2 LT PUSH2 0xAE4 JUMPI POP SWAP2 DUP4 SWAP2 PUSH1 0x1 SWAP4 PUSH1 0x8 SWAP7 SWAP6 PUSH1 0x1F NOT DUP2 AND LT PUSH2 0xACB JUMPI JUMPDEST POP POP POP DUP2 SHL ADD PUSH1 0x6 DUP3 ADD SSTORE PUSH2 0x92A JUMP JUMPDEST ADD MLOAD PUSH1 0x0 NOT PUSH1 0xF8 DUP5 PUSH1 0x3 SHL AND SHR NOT AND SWAP1 SSTORE DUP15 DUP1 DUP1 PUSH2 0xABB JUMP JUMPDEST SWAP2 SWAP3 PUSH1 0x20 PUSH1 0x1 DUP2 SWAP3 DUP7 DUP6 ADD MLOAD DUP2 SSTORE ADD SWAP5 ADD SWAP3 ADD PUSH2 0xA9A JUMP JUMPDEST PUSH1 0x6 DUP5 ADD PUSH1 0x0 MSTORE PUSH1 0x20 PUSH1 0x0 KECCAK256 PUSH1 0x1F DUP5 ADD PUSH1 0x5 SHR DUP2 ADD PUSH1 0x20 DUP6 LT PUSH2 0xB3C JUMPI JUMPDEST PUSH1 0x1F DUP4 ADD PUSH1 0x5 SHR DUP3 ADD DUP2 LT PUSH2 0xB30 JUMPI POP POP PUSH2 0x8F5 JUMP JUMPDEST PUSH1 0x0 DUP2 SSTORE PUSH1 0x1 ADD PUSH2 0xB1A JUMP JUMPDEST POP DUP1 PUSH2 0xB1A JUMP JUMPDEST ADD MLOAD SWAP1 POP DUP14 DUP1 PUSH2 0x8B1 JUMP JUMPDEST SWAP3 POP PUSH1 0x5 DUP5 ADD PUSH1 0x0 MSTORE PUSH1 0x20 PUSH1 0x0 KECCAK256 SWAP1 PUSH1 0x0 SWAP4 JUMPDEST PUSH1 0x1F NOT DUP5 AND DUP6 LT PUSH2 0xBA5 JUMPI PUSH1 0x1 SWAP5 POP DUP4 PUSH1 0x1F NOT DUP2 AND LT PUSH2 0xB8C JUMPI JUMPDEST POP POP POP DUP2 SHL ADD PUSH1 0x5 DUP3 ADD SSTORE PUSH2 0x8C9 JUMP JUMPDEST ADD MLOAD PUSH1 0x0 NOT PUSH1 0xF8 DUP5 PUSH1 0x3 SHL AND SHR NOT AND SWAP1 SSTORE DUP14 DUP1 DUP1 PUSH2 0xB7C JUMP JUMPDEST DUP2 DUP2 ADD MLOAD DUP4 SSTORE PUSH1 0x20 SWAP5 DUP6 ADD SWAP5 PUSH1 0x1 SWAP1 SWAP4 ADD SWAP3 SWAP1 SWAP2 ADD SWAP1 PUSH2 0xB61 JUMP JUMPDEST SWAP1 SWAP2 POP PUSH1 0x5 DUP5 ADD PUSH1 0x0 MSTORE PUSH1 0x20 PUSH1 0x0 KECCAK256 PUSH1 0x1F DUP5 ADD PUSH1 0x5 SHR DUP2 ADD PUSH1 0x20 DUP6 LT PUSH2 0xC0C JUMPI JUMPDEST SWAP1 DUP5 SWAP4 SWAP3 SWAP2 JUMPDEST PUSH1 0x1F DUP4 ADD PUSH1 0x5 SHR DUP3 ADD DUP2 LT PUSH2 0xBFD JUMPI POP POP PUSH2 0x89A JUMP JUMPDEST PUSH1 0x0 DUP2 SSTORE DUP6 SWAP5 POP PUSH1 0x1 ADD PUSH2 0xBE7 JUMP JUMPDEST POP DUP1 PUSH2 0xBE1 JUMP JUMPDEST ADD MLOAD SWAP1 POP DUP14 DUP1 PUSH2 0x84A JUMP JUMPDEST SWAP3 POP PUSH1 0x3 DUP5 ADD PUSH1 0x0 MSTORE PUSH1 0x20 PUSH1 0x0 KECCAK256 SWAP1 PUSH1 0x0 SWAP4 JUMPDEST PUSH1 0x1F NOT DUP5 AND DUP6 LT PUSH2 0xC75 JUMPI PUSH1 0x1 SWAP5 POP DUP4 PUSH1 0x1F NOT DUP2 AND LT PUSH2 0xC5C JUMPI JUMPDEST POP POP POP DUP2 SHL ADD PUSH1 0x3 DUP3 ADD SSTORE PUSH2 0x862 JUMP JUMPDEST ADD MLOAD PUSH1 0x0 NOT PUSH1 0xF8 DUP5 PUSH1 0x3 SHL AND SHR NOT AND SWAP1 SSTORE DUP14 DUP1 DUP1 PUSH2 0xC4C JUMP JUMPDEST DUP2 DUP2 ADD MLOAD DUP4 SSTORE PUSH1 0x20 SWAP5 DUP6 ADD SWAP5 PUSH1 0x1 SWAP1 SWAP4 ADD SWAP3 SWAP1 SWAP2 ADD SWAP1 PUSH2 0xC31 JUMP JUMPDEST SWAP1 SWAP2 POP PUSH1 0x3 DUP5 ADD PUSH1 0x0 MSTORE PUSH1 0x20 PUSH1 0x0 KECCAK256 PUSH1 0x1F DUP5 ADD PUSH1 0x5 SHR DUP2 ADD PUSH1 0x20 DUP6 LT PUSH2 0xCDC JUMPI JUMPDEST SWAP1 DUP5 SWAP4 SWAP3 SWAP2 JUMPDEST PUSH1 0x1F DUP4 ADD PUSH1 0x5 SHR DUP3 ADD DUP2 LT PUSH2 0xCCD JUMPI POP POP PUSH2 0x833 JUMP JUMPDEST PUSH1 0x0 DUP2 SSTORE DUP6 SWAP5 POP PUSH1 0x1 ADD PUSH2 0xCB7 JUMP JUMPDEST POP DUP1 PUSH2 0xCB1 JUMP JUMPDEST ADD MLOAD SWAP1 POP DUP14 DUP1 PUSH2 0x7ED JUMP JUMPDEST SWAP3 POP PUSH1 0x2 DUP5 ADD PUSH1 0x0 MSTORE PUSH1 0x20 PUSH1 0x0 KECCAK256 SWAP1 PUSH1 0x0 SWAP4 JUMPDEST PUSH1 0x1F NOT DUP5 AND DUP6 LT PUSH2 0xD45 JUMPI PUSH1 0x1 SWAP5 POP DUP4 PUSH1 0x1F NOT DUP2 AND LT PUSH2 0xD2C JUMPI JUMPDEST POP POP POP DUP2 SHL ADD PUSH1 0x2 DUP3 ADD SSTORE PUSH2 0x805 JUMP JUMPDEST ADD MLOAD PUSH1 0x0 NOT PUSH1 0xF8 DUP5 PUSH1 0x3 SHL AND SHR NOT AND SWAP1 SSTORE DUP14 DUP1 DUP1 PUSH2 0xD1C JUMP JUMPDEST DUP2 DUP2 ADD MLOAD DUP4 SSTORE PUSH1 0x20 SWAP5 DUP6 ADD SWAP5 PUSH1 0x1 SWAP1 SWAP4 ADD SWAP3 SWAP1 SWAP2 ADD SWAP1 PUSH2 0xD01 JUMP JUMPDEST SWAP1 SWAP2 POP PUSH1 0x2 DUP5 ADD PUSH1 0x0 MSTORE PUSH1 0x20 PUSH1 0x0 KECCAK256 PUSH1 0x1F DUP5 ADD PUSH1 0x5 SHR DUP2 ADD PUSH1 0x20 DUP6 LT PUSH2 0xDAC JUMPI JUMPDEST SWAP1 DUP5 SWAP4 SWAP3 SWAP2 JUMPDEST PUSH1 0x1F DUP4 ADD PUSH1 0x5 SHR DUP3 ADD DUP2 LT PUSH2 0xD9D JUMPI POP POP PUSH2 0x7D6 JUMP JUMPDEST PUSH1 0x0 DUP2 SSTORE DUP6 SWAP5 POP PUSH1 0x1 ADD PUSH2 0xD87 JUMP JUMPDEST POP DUP1 PUSH2 0xD81 JUMP JUMPDEST ADD MLOAD SWAP1 POP DUP14 DUP1 PUSH2 0x790 JUMP JUMPDEST SWAP3 POP PUSH1 0x1 DUP5 ADD PUSH1 0x0 MSTORE PUSH1 0x20 PUSH1 0x0 KECCAK256 SWAP1 PUSH1 0x0 SWAP4 JUMPDEST PUSH1 0x1F NOT DUP5 AND DUP6 LT PUSH2 0xE15 JUMPI PUSH1 0x1 SWAP5 POP DUP4 PUSH1 0x1F NOT DUP2 AND LT PUSH2 0xDFC JUMPI JUMPDEST POP POP POP DUP2 SHL ADD PUSH1 0x1 DUP3 ADD SSTORE PUSH2 0x7A8 JUMP JUMPDEST ADD MLOAD PUSH1 0x0 NOT PUSH1 0xF8 DUP5 PUSH1 0x3 SHL AND SHR NOT AND SWAP1 SSTORE DUP14 DUP1 DUP1 PUSH2 0xDEC JUMP JUMPDEST DUP2 DUP2 ADD MLOAD DUP4 SSTORE PUSH1 0x20 SWAP5 DUP6 ADD SWAP5 PUSH1 0x1 SWAP1 SWAP4 ADD SWAP3 SWAP1 SWAP2 ADD SWAP1 PUSH2 0xDD1 JUMP JUMPDEST SWAP1 SWAP2 POP PUSH1 0x1 DUP5 ADD PUSH1 0x0 MSTORE PUSH1 0x20 PUSH1 0x0 KECCAK256 PUSH1 0x1F DUP5 ADD PUSH1 0x5 SHR DUP2 ADD PUSH1 0x20 DUP6 LT PUSH2 0xE7C JUMPI JUMPDEST SWAP1 DUP5 SWAP4 SWAP3 SWAP2 JUMPDEST PUSH1 0x1F DUP4 ADD PUSH1 0x5 SHR DUP3 ADD DUP2 LT PUSH2 0xE6D JUMPI POP POP PUSH2 0x779 JUMP JUMPDEST PUSH1 0x0 DUP2 SSTORE DUP6 SWAP5 POP PUSH1 0x1 ADD PUSH2 0xE57 JUMP JUMPDEST POP DUP1 PUSH2 0xE51 JUMP JUMPDEST ADD MLOAD SWAP1 POP DUP14 DUP1 PUSH2 0x736 JUMP JUMPDEST SWAP3 POP DUP4 PUSH1 0x0 MSTORE PUSH1 0x20 PUSH1 0x0 KECCAK256 SWAP1 PUSH1 0x0 SWAP4 JUMPDEST PUSH1 0x1F NOT DUP5 AND DUP6 LT PUSH2 0xEDF JUMPI PUSH1 0x1 SWAP5 POP DUP4 PUSH1 0x1F NOT DUP2 AND LT PUSH2 0xEC6 JUMPI JUMPDEST POP POP POP DUP2 SHL ADD DUP2 SSTORE PUSH2 0x74B JUMP JUMPDEST ADD MLOAD PUSH1 0x0 NOT PUSH1 0xF8 DUP5 PUSH1 0x3 SHL AND SHR NOT AND SWAP1 SSTORE DUP14 DUP1 DUP1 PUSH2 0xEB9 JUMP JUMPDEST DUP2 DUP2 ADD MLOAD DUP4 SSTORE PUSH1 0x20 SWAP5 DUP6 ADD SWAP5 PUSH1 0x1 SWAP1 SWAP4 ADD SWAP3 SWAP1 SWAP2 ADD SWAP1 PUSH2 0xE9E JUMP JUMPDEST SWAP1 SWAP2 POP DUP4 PUSH1 0x0 MSTORE PUSH1 0x20 PUSH1 0x0 KECCAK256 PUSH1 0x1F DUP5 ADD PUSH1 0x5 SHR DUP2 ADD PUSH1 0x20 DUP6 LT PUSH2 0xF43 JUMPI JUMPDEST SWAP1 DUP5 SWAP4 SWAP3 SWAP2 JUMPDEST PUSH1 0x1F DUP4 ADD PUSH1 0x5 SHR DUP3 ADD DUP2 LT PUSH2 0xF34 JUMPI POP POP PUSH2 0x71F JUMP JUMPDEST PUSH1 0x0 DUP2 SSTORE DUP6 SWAP5 POP PUSH1 0x1 ADD PUSH2 0xF1E JUMP JUMPDEST POP DUP1 PUSH2 0xF18 JUMP JUMPDEST PUSH1 0x40 MLOAD PUSH3 0x461BCD PUSH1 0xE5 SHL DUP2 MSTORE PUSH1 0x20 PUSH1 0x4 DUP3 ADD MSTORE PUSH1 0x17 PUSH1 0x24 DUP3 ADD MSTORE PUSH32 0x506167616D656E746F206A61207265676973747261646F000000000000000000 PUSH1 0x44 DUP3 ADD MSTORE PUSH1 0x64 SWAP1 REVERT JUMPDEST PUSH1 0x40 MLOAD PUSH3 0x461BCD PUSH1 0xE5 SHL DUP2 MSTORE PUSH1 0x20 PUSH1 0x4 DUP3 ADD MSTORE PUSH1 0x17 PUSH1 0x24 DUP3 ADD MSTORE PUSH32 0x76616C6F7220646576652073657220706F73697469766F000000000000000000 PUSH1 0x44 DUP3 ADD MSTORE PUSH1 0x64 SWAP1 REVERT JUMPDEST PUSH1 0x40 MLOAD PUSH3 0x461BCD PUSH1 0xE5 SHL DUP2 MSTORE PUSH1 0x20 PUSH1 0x4 DUP3 ADD MSTORE PUSH1 0x15 PUSH1 0x24 DUP3 ADD MSTORE PUSH21 0x7061796D656E744964206F6272696761746F72696F PUSH1 0x58 SHL PUSH1 0x44 DUP3 ADD MSTORE PUSH1 0x64 SWAP1 REVERT JUMPDEST PUSH1 0x40 MLOAD PUSH3 0x461BCD PUSH1 0xE5 SHL DUP2 MSTORE PUSH1 0x20 PUSH1 0x4 DUP3 ADD MSTORE PUSH1 0x1A PUSH1 0x24 DUP3 ADD MSTORE PUSH32 0x4170656E6173206F70657261646F72206175746F72697A61646F000000000000 PUSH1 0x44 DUP3 ADD MSTORE PUSH1 0x64 SWAP1 REVERT JUMPDEST POP PUSH1 0x0 SLOAD PUSH1 0x1 PUSH1 0x1 PUSH1 0xA0 SHL SUB AND CALLER EQ PUSH2 0x5CF JUMP JUMPDEST CALLVALUE PUSH2 0x1C1 JUMPI PUSH1 0x0 CALLDATASIZE PUSH1 0x3 NOT ADD SLT PUSH2 0x1C1 JUMPI PUSH1 0x0 SLOAD PUSH1 0x40 MLOAD PUSH1 0x1 PUSH1 0x1 PUSH1 0xA0 SHL SUB SWAP1 SWAP2 AND DUP2 MSTORE PUSH1 0x20 SWAP1 RETURN JUMPDEST CALLVALUE PUSH2 0x1C1 JUMPI PUSH1 0x0 CALLDATASIZE PUSH1 0x3 NOT ADD SLT PUSH2 0x1C1 JUMPI PUSH1 0x1 SLOAD PUSH1 0x40 MLOAD PUSH1 0x1 PUSH1 0x1 PUSH1 0xA0 SHL SUB SWAP1 SWAP2 AND DUP2 MSTORE PUSH1 0x20 SWAP1 RETURN JUMPDEST CALLVALUE PUSH2 0x1C1 JUMPI PUSH1 0x0 CALLDATASIZE PUSH1 0x3 NOT ADD SLT PUSH2 0x1C1 JUMPI PUSH1 0x20 PUSH1 0x3 SLOAD PUSH1 0x40 MLOAD SWAP1 DUP2 MSTORE RETURN JUMPDEST CALLVALUE PUSH2 0x1C1 JUMPI PUSH1 0x20 CALLDATASIZE PUSH1 0x3 NOT ADD SLT PUSH2 0x1C1 JUMPI PUSH1 0x4 CALLDATALOAD PUSH1 0x1 PUSH1 0x1 PUSH1 0x40 SHL SUB DUP2 GT PUSH2 0x1C1 JUMPI PUSH1 0x20 PUSH2 0x110D DUP2 SWAP3 CALLDATASIZE SWAP1 PUSH1 0x4 ADD PUSH2 0x1199 JUMP JUMPDEST SWAP2 SWAP1 DUP3 PUSH1 0x40 MLOAD SWAP4 DUP5 SWAP3 DUP4 CALLDATACOPY DUP2 ADD PUSH1 0x5 DUP2 MSTORE SUB ADD SWAP1 KECCAK256 SLOAD ISZERO ISZERO PUSH1 0x40 MLOAD SWAP1 DUP2 MSTORE RETURN JUMPDEST CALLVALUE PUSH2 0x1C1 JUMPI PUSH1 0x20 CALLDATASIZE PUSH1 0x3 NOT ADD SLT PUSH2 0x1C1 JUMPI PUSH1 0x4 CALLDATALOAD PUSH1 0x1 PUSH1 0x1 PUSH1 0x40 SHL SUB DUP2 GT PUSH2 0x1C1 JUMPI PUSH1 0x20 PUSH2 0x1160 DUP2 SWAP3 CALLDATASIZE SWAP1 PUSH1 0x4 ADD PUSH2 0x1199 JUMP JUMPDEST SWAP2 SWAP1 DUP3 PUSH1 0x40 MLOAD SWAP4 DUP5 SWAP3 DUP4 CALLDATACOPY DUP2 ADD PUSH1 0x5 DUP2 MSTORE SUB ADD SWAP1 KECCAK256 SLOAD PUSH1 0x40 MLOAD SWAP1 DUP2 MSTORE RETURN JUMPDEST CALLVALUE PUSH2 0x1C1 JUMPI PUSH1 0x0 CALLDATASIZE PUSH1 0x3 NOT ADD SLT PUSH2 0x1C1 JUMPI PUSH1 0x20 SWAP1 PUSH1 0x2 SLOAD DUP2 MSTORE RETURN JUMPDEST SWAP2 DUP2 PUSH1 0x1F DUP5 ADD SLT ISZERO PUSH2 0x1C1 JUMPI DUP3 CALLDATALOAD SWAP2 PUSH1 0x1 PUSH1 0x1 PUSH1 0x40 SHL SUB DUP4 GT PUSH2 0x1C1 JUMPI PUSH1 0x20 DUP4 DUP2 DUP7 ADD SWAP6 ADD ADD GT PUSH2 0x1C1 JUMPI JUMP JUMPDEST SWAP2 SWAP1 DUP3 MLOAD SWAP3 DUP4 DUP3 MSTORE PUSH1 0x0 JUMPDEST DUP5 DUP2 LT PUSH2 0x11F2 JUMPI POP POP DUP3 PUSH1 0x0 PUSH1 0x20 DUP1 SWAP5 SWAP6 DUP5 ADD ADD MSTORE PUSH1 0x1F DUP1 NOT SWAP2 ADD AND ADD ADD SWAP1 JUMP JUMPDEST PUSH1 0x20 DUP2 DUP4 ADD DUP2 ADD MLOAD DUP5 DUP4 ADD DUP3 ADD MSTORE ADD PUSH2 0x11D1 JUMP JUMPDEST PUSH1 0x20 DUP2 MSTORE DUP2 MLOAD PUSH2 0x12A7 PUSH2 0x1227 PUSH2 0x140 SWAP3 DUP4 PUSH1 0x20 DUP7 ADD MSTORE PUSH2 0x160 DUP6 ADD SWAP1 PUSH2 0x11C6 JUMP JUMPDEST PUSH2 0x1292 PUSH2 0x1274 PUSH2 0x1260 PUSH2 0x124C PUSH1 0x20 DUP10 ADD MLOAD SWAP5 PUSH1 0x1F NOT SWAP6 DUP7 DUP11 DUP4 SUB ADD PUSH1 0x40 DUP12 ADD MSTORE PUSH2 0x11C6 JUMP JUMPDEST PUSH1 0x40 DUP10 ADD MLOAD DUP6 DUP10 DUP4 SUB ADD PUSH1 0x60 DUP11 ADD MSTORE PUSH2 0x11C6 JUMP JUMPDEST PUSH1 0x60 DUP9 ADD MLOAD DUP5 DUP9 DUP4 SUB ADD PUSH1 0x80 DUP10 ADD MSTORE PUSH2 0x11C6 JUMP JUMPDEST PUSH1 0x80 DUP8 ADD MLOAD PUSH1 0xA0 DUP8 ADD MSTORE PUSH1 0xA0 DUP8 ADD MLOAD DUP4 DUP8 DUP4 SUB ADD PUSH1 0xC0 DUP9 ADD MSTORE PUSH2 0x11C6 JUMP JUMPDEST SWAP1 PUSH1 0xC0 DUP7 ADD MLOAD SWAP1 DUP6 DUP4 SUB ADD PUSH1 0xE0 DUP7 ADD MSTORE PUSH2 0x11C6 JUMP JUMPDEST PUSH1 0xE0 DUP5 ADD MLOAD PUSH2 0x100 DUP5 DUP2 ADD SWAP2 SWAP1 SWAP2 MSTORE DUP5 ADD MLOAD PUSH1 0x1 PUSH1 0x1 PUSH1 0xA0 SHL SUB AND PUSH2 0x120 DUP1 DUP6 ADD SWAP2 SWAP1 SWAP2 MSTORE SWAP1 SWAP4 ADD MLOAD ISZERO ISZERO SWAP2 ADD MSTORE SWAP1 JUMP JUMPDEST PUSH2 0x140 DUP2 ADD SWAP1 DUP2 LT PUSH1 0x1 PUSH1 0x1 PUSH1 0x40 SHL SUB DUP3 GT OR PUSH2 0xA68 JUMPI PUSH1 0x40 MSTORE JUMP JUMPDEST SWAP1 PUSH1 0x1F DUP1 NOT SWAP2 ADD AND DUP2 ADD SWAP1 DUP2 LT PUSH1 0x1 PUSH1 0x1 PUSH1 0x40 SHL SUB DUP3 GT OR PUSH2 0xA68 JUMPI PUSH1 0x40 MSTORE JUMP JUMPDEST SWAP3 SWAP2 SWAP3 PUSH1 0x1 PUSH1 0x1 PUSH1 0x40 SHL SUB DUP3 GT PUSH2 0xA68 JUMPI PUSH1 0x40 MLOAD SWAP2 PUSH2 0x133E PUSH1 0x1F DUP3 ADD PUSH1 0x1F NOT AND PUSH1 0x20 ADD DUP5 PUSH2 0x12F4 JUMP JUMPDEST DUP3 SWAP5 DUP2 DUP5 MSTORE DUP2 DUP4 ADD GT PUSH2 0x1C1 JUMPI DUP3 DUP2 PUSH1 0x20 SWAP4 DUP5 PUSH1 0x0 SWAP7 ADD CALLDATACOPY ADD ADD MSTORE JUMP JUMPDEST SWAP1 PUSH1 0x1 DUP3 DUP2 SHR SWAP3 AND DUP1 ISZERO PUSH2 0x138B JUMPI JUMPDEST PUSH1 0x20 DUP4 LT EQ PUSH2 0x1375 JUMPI JUMP JUMPDEST PUSH4 0x4E487B71 PUSH1 0xE0 SHL PUSH1 0x0 MSTORE PUSH1 0x22 PUSH1 0x4 MSTORE PUSH1 0x24 PUSH1 0x0 REVERT JUMPDEST SWAP2 PUSH1 0x7F AND SWAP2 PUSH2 0x136A JUMP JUMPDEST PUSH1 0x6 SLOAD DUP2 LT ISZERO PUSH2 0x190 JUMPI PUSH1 0x6 PUSH1 0x0 MSTORE PUSH32 0xF652222313E28459528D920B65115C16C04F3EFC82AAEDC97BE59F3F377C0D3F ADD SWAP1 PUSH1 0x0 SWAP1 JUMP JUMPDEST PUSH1 0x0 NOT DUP2 EQ PUSH2 0x1A6 JUMPI PUSH1 0x1 ADD SWAP1 JUMP JUMPDEST SWAP2 SWAP1 DUP3 ADD DUP1 SWAP3 GT PUSH2 0x1A6 JUMPI JUMP JUMPDEST SWAP1 DUP1 PUSH1 0x20 SWAP4 SWAP3 DUP2 DUP5 MSTORE DUP5 DUP5 ADD CALLDATACOPY PUSH1 0x0 DUP3 DUP3 ADD DUP5 ADD MSTORE PUSH1 0x1F ADD PUSH1 0x1F NOT AND ADD ADD SWAP1 JUMP JUMPDEST PUSH1 0x40 MLOAD SWAP1 PUSH2 0x1416 DUP3 PUSH2 0x12D8 JUMP JUMPDEST PUSH1 0x0 PUSH2 0x120 DUP4 PUSH1 0x60 DUP1 DUP3 MSTORE DUP1 PUSH1 0x20 DUP4 ADD MSTORE DUP1 PUSH1 0x40 DUP4 ADD MSTORE DUP1 DUP1 DUP4 ADD MSTORE DUP4 PUSH1 0x80 DUP4 ADD MSTORE DUP1 PUSH1 0xA0 DUP4 ADD MSTORE PUSH1 0xC0 DUP3 ADD MSTORE DUP3 PUSH1 0xE0 DUP3 ADD MSTORE DUP3 PUSH2 0x100 DUP3 ADD MSTORE ADD MSTORE JUMP JUMPDEST SWAP1 PUSH1 0x40 MLOAD SWAP2 DUP3 PUSH1 0x0 DUP3 SLOAD SWAP3 PUSH2 0x1468 DUP5 PUSH2 0x135B JUMP JUMPDEST SWAP1 DUP2 DUP5 MSTORE PUSH1 0x1 SWAP5 DUP6 DUP2 AND SWAP1 DUP2 PUSH1 0x0 EQ PUSH2 0x14D7 JUMPI POP PUSH1 0x1 EQ PUSH2 0x1494 JUMPI JUMPDEST POP POP PUSH2 0x1492 SWAP3 POP SUB DUP4 PUSH2 0x12F4 JUMP JUMPDEST JUMP JUMPDEST SWAP1 SWAP4 SWAP2 POP PUSH1 0x0 MSTORE PUSH1 0x20 SWAP1 DUP2 PUSH1 0x0 KECCAK256 SWAP4 PUSH1 0x0 SWAP2 JUMPDEST DUP2 DUP4 LT PUSH2 0x14BF JUMPI POP POP PUSH2 0x1492 SWAP4 POP DUP3 ADD ADD CODESIZE DUP1 PUSH2 0x1484 JUMP JUMPDEST DUP6 SLOAD DUP9 DUP5 ADD DUP6 ADD MSTORE SWAP5 DUP6 ADD SWAP5 DUP8 SWAP5 POP SWAP2 DUP4 ADD SWAP2 PUSH2 0x14A7 JUMP JUMPDEST SWAP2 POP POP PUSH2 0x1492 SWAP5 POP PUSH1 0x20 SWAP3 POP PUSH1 0xFF NOT AND DUP3 DUP5 ADD MSTORE ISZERO ISZERO PUSH1 0x5 SHL DUP3 ADD ADD CODESIZE DUP1 PUSH2 0x1484 JUMP JUMPDEST PUSH1 0x1 PUSH1 0x1 PUSH1 0x40 SHL SUB DUP2 GT PUSH2 0xA68 JUMPI PUSH1 0x5 SHL PUSH1 0x20 ADD SWAP1 JUMP JUMPDEST ISZERO PUSH2 0x1518 JUMPI JUMP JUMPDEST PUSH1 0x40 MLOAD PUSH3 0x461BCD PUSH1 0xE5 SHL DUP2 MSTORE PUSH1 0x20 PUSH1 0x4 DUP3 ADD MSTORE PUSH1 0x1C PUSH1 0x24 DUP3 ADD MSTORE PUSH32 0x4170656E6173206F206F776E657220706F646520657865637574617200000000 PUSH1 0x44 DUP3 ADD MSTORE PUSH1 0x64 SWAP1 REVERT INVALID LOG2 PUSH5 0x6970667358 0x22 SLT KECCAK256 0xEE 0xAD CALLDATASIZE CALLER LOG2 0x25 MUL 0xA6 0xD9 CREATE SLT CALLCODE 0xDE MSTORE8 0xBF AND PUSH8 0xDF015D699079A8E 0xD0 0xE0 0xA5 0xEF PUSH19 0xFBE464736F6C63430008140033000000000000 "},"methodIdentifiers":{"getPaymentById(string)":"aa0dce68","getPaymentByRecordId(bytes32)":"d93fdba6","getRecentRecords(uint256)":"f50817e8","getRecordId(string)":"0f1f44b3","getStats()":"c59d4847","operator()":"570ca735","owner()":"8da5cb5b","paymentExists(string)":"18c7d16b","registerPayment(string,string,string,string,uint256,string,string)":"a70a674a","setOperator(address)":"b3ab15fb","totalAmountCents()":"2a3a6bf7","totalPayments()":"005b4487","transferOwnership(address)":"f2fde38b"}}}}}